S00C00006D61696E2E7372656373
S11300000C942A000C9447000C9447000C9447006D
S11300100C9447000C9447000C9447000C94470040
S11300200C9447000C9447000C9447000C94470030
S11300300C9447000C9447000C9447000C94470020
S11300400C9447000C9447000C9447000C94470010
S11300500C94470011241FBECFE5D8E0DEBFCDBF0E
S113006010E0A0E6B0E0E8E9FBE002C005900D92E4
S1130070A63BB107D9F710E0A6EBB0E001C01D9292
S1130080AB3BB107E1F70E9498040C94CA050C94A9
S113009000003E9A3F98389A3D98359A309A319AA2
S11300A0329A3398379A0895FC01369A86B184FFC0
S11300B0FDCF24B135B184EF91E0289FA001299FA1
S11300C0500D389F500D1124852F86958695808379
S11300D011820895813049F0813028F0823039F05E
S11300E0833041F406C06ABB089567BB089564BBBE
S11300F0089561BB0895442309F441C0413009F0D7
S11301007EC08130A9F0813030F08230F1F083304C
S113011009F075C027C02AB381E090E0AC0102C0A9
S1130120440F551F6A95E2F7BA01622B6ABB089522
S113013027B381E090E0AC0102C0440F551F6A95DB
S1130140E2F7BA01622B67BB089524B381E090E023
S1130150AC0102C0440F551F6A95E2F7BA01622B45
S113016064BB089521B381E090E0AC0102C0440F68
S1130170551F6A95E2F7BA01622B61BB089581307D
S1130180A9F0813028F08230F9F08330C1F52AC01B
S11301902AB381E090E0AC0102C0440F551F6A9578
S11301A0E2F7BA01609562236ABB089527B381E040
S11301B090E0AC0102C0440F551F6A95E2F7BA0102
S11301C06095622367BB089524B381E090E0AC019D
S11301D002C0440F551F6A95E2F7BA016095622385
S11301E064BB089521B381E090E0AC0102C0440FE8
S11301F0551F6A95E2F7BA016095622361BB0895C1
S1130200813049F0813028F0823039F0833041F474
S113021006C06BBB089568BB089565BB089562BBB7
S11302200895442309F441C0413009F07EC081306F
S1130230A9F0813030F08230F1F0833009F075C0DC
S113024027C02BB381E090E0AC0102C0440F551FDE
S11302506A95E2F7BA01622B6BBB089528B381E07B
S113026090E0AC0102C0440F551F6A95E2F7BA0151
S1130270622B68BB089525B381E090E0AC0102C015
S1130280440F551F6A95E2F7BA01622B65BB0895C6
S113029022B381E090E0AC0102C0440F551F6A957F
S11302A0E2F7BA01622B62BB08958130A9F0813074
S11302B028F08230F9F08330C1F52AC02BB381E0F5
S11302C090E0AC0102C0440F551F6A95E2F7BA01F1
S11302D0609562236BBB089528B381E090E0AC0184
S11302E002C0440F551F6A95E2F7BA016095622374
S11302F068BB089525B381E090E0AC0102C0440FCF
S1130300551F6A95E2F7BA016095622365BB0895AB
S113031022B381E090E0AC0102C0440F551F6A95FE
S1130320E2F7BA016095622362BB0895813059F007
S1130330813028F0823059F0833081F40CC089B3C5
S1130340FB018083089586B3FB018083089583B302
S1130350FB018083089580B3FB018083089581307D
S1130360A1F0813028F08230E9F08330A1F527C074
S113037089B390E09C0102C0359527956A95E2F710
S1130380B9016170FA016083089586B390E09C011D
S113039002C0359527956A95E2F7B9016170FA01B3
S11303A06083089583B390E09C0102C0359527953E
S11303B06A95E2F7B9016170FA016083089580B328
S11303C090E09C0102C0359527956A95E2F7B90142
S11303D06170FA01608308958130A1F0813028F0C2
S11303E08230E9F08330A1F527C02BB381E090E09F
S11303F0AC0102C0440F551F6A95E2F7BA016227A7
S11304006BBB089528B381E090E0AC0102C0440FB7
S1130410551F6A95E2F7BA01622768BB089525B3B0
S113042081E090E0AC0102C0440F551F6A95E2F7E9
S1130430BA01622765BB089522B381E090E0AC0164
S113044002C0440F551F6A95E2F7BA01622762BBE6
S113045008958130A1F0813028F08230E9F08330B2
S1130460A1F527C02BB381E090E0AC0102C0440F9A
S1130470551F6A95E2F7BA01622B6BBB089528B346
S113048081E090E0AC0102C0440F551F6A95E2F789
S1130490BA01622B68BB089525B381E090E0AC01FA
S11304A002C0440F551F6A95E2F7BA01622B65BB7F
S11304B0089522B381E090E0AC0102C0440F551FBF
S11304C06A95E2F7BA01622B62BB089583E060E0AB
S11304D041E00E947B0083E061E041E00E947B00F8
S11304E083E062E041E00E947B0083E063E041E05E
S11304F00E947B0083E064E040E00E947B0083E094
S113050065E040E00E947B0083E066E040E00E94FA
S11305107B0083E067E040E00E947B0083E090E0A2
S113052064E070E00E94290283E090E065E070E0FE
S11305300E94290283E090E066E070E00E942902B4
S113054083E090E067E070E00E94290283E060E0CD
S113055041E00E94110183E061E041E00E94110149
S113056083E062E041E00E94110183E063E041E046
S11305700E9411010895AF92BF92CF92DF92EF9241
S1130580FF920F931F93CF93DF930F92CDB7DEB7F4
S11305901982CC24DD2400E0AA246894A2F8BC2C9F
S11305A083E06C2D40E00E9411010F2EF0E6EF2E47
S11305B0F0E0FF2EF02DEC0CFD1C1A2D83E0612FD2
S11305C0AE014F5F5F4F0E94AF018981882391F490
S11305D0F701008183E0612FAE014F5F5F4F0E94FE
S11305E0AF0189818823B1F38FE39CE90197F1F787
S11305F000C000001F5FE4E0F0E0EE0EFF1E1830C4
S1130600E9F683E06B2D41E00E9411010894C11CBE
S1130610D11CF4E0CF16D10411F6802F0F90DF9196
S1130620CF911F910F91FF90EF90DF90CF90BF90EB
S1130630AF9008958093B7008093B8008093B90079
S11306408093BA00809170000895CF93C82F81E001
S113065061E040E00E94110181E062E040E00E941C
S1130660110181E063E040E00E9411018BB39C2FF3
S1130670907F8F70892B8BBB81E063E041E00E9407
S113068011018FE99FE00197F1F700C0000081E0BC
S113069063E040E00E9411018BB3C295C07F8F706C
S11306A0C82BCBBB81E063E041E00E9411018FE9DC
S11306B09FE00197F1F700C0000081E063E040E0B3
S11306C00E9411018FE19EE40197F1F700C0000040
S11306D0CF91089581E061E041E00E947B0081E0D8
S11306E062E041E00E947B0081E063E041E00E941F
S11306F07B0080E064E041E00E947B0080E065E0F4
S113070041E00E947B0080E066E041E00E947B00C3
S113071080E067E041E00E947B008FEF91EEA4E06F
S113072081509040A040E1F700C0000083E30E94A4
S1130730250382E30E94250388E20E9425038EE0BC
S11307400E94250381E00E94250382E00E94250384
S11307500895CF93C82F81E061E041E00E94110128
S113076081E062E040E00E94110181E063E040E04A
S11307700E9411018C2F807F8BBB81E063E041E0FC
S11307800E9411018FE99FE00197F1F700C000007A
S113079081E063E040E00E941101C295C07FCBBBC1
S11307A081E063E041E00E9411018FE99FE001973D
S11307B0F1F700C0000081E063E040E00E94110115
S11307C08FE19EE40197F1F700C00000CF910895F6
S11307D00F931F93CF938C01FC018081882351F0E8
S11307E0C0E00E94A903CF5FF801EC0FF11D8081E6
S11307F08823B9F7CF911F910F91089581E00E944A
S113080025030895CF93DF9300D0CDB7DEB790E8EA
S1130810998390EC9A83FE01E80FF11D8181860F84
S11308200E9425030F900F90DF91CF9108954F926E
S11308305F926F927F928F929F92AF92BF92CF926C
S1130840DF92EF92FF92CF93DF936B017C019923A8
S11308505CF48DE20E94A903F094E094D094C094D7
S1130860C11CD11CE11CF11CC114D104E104F1042C
S113087009F44FC081E090E0A0E0B0E00F2EFAE070
S11308808F2EF0E09F2EF0E0AF2EF0E0BF2EF02D83
S1130890BC01CD01A50194010E946E052B013C0110
S11308A0C701B6010E948D05DC01CB01840D951DA5
S11308B0A61DB71DC22ED32EE42EF52EC114D104CD
S11308C0E104F10429F782309105A105B1050CF189
S11308D00F2EFAE04F2EF0E05F2EF0E06F2EF0E0E6
S11308E07F2EF02DBC01CD01A30192010E948D0544
S11308F0822EC32EC42FD52F862F805D0E94A9037C
S1130900882D9C2DAC2FBD2F82309105A105B105FA
S11309104CF7DF91CF91FF90EF90DF90CF90BF9095
S1130920AF909F908F907F906F905F904F900895BD
S1130930CF93DF93CDB7DEB72A970FB6F894DEBF17
S11309400FBECDBF1A8219821B821C821D821E8299
S11309501F82188619861A860E946A030E946602FC
S11309600E9468050F2EF7E0CF2EDD24F02DCC0E6B
S1130970DD1E0F2EFBE0AF2EBB24F02DAC0EBD1EF2
S113098082E790E00E94E8038FEF97EAA1E68150A6
S11309909040A040E1F700C000000E94FE030F2E2B
S11309A0F3E0EF2EFF24F02DEC0EFD1E0E94BB029F
S11309B0182F8823D9F30E94A903D7011D937D0121
S11309C0CA16DB0699F70E94FE0382E890E00E94B3
S11309D0E8038FEF97EAA1E681509040A040E1F749
S11309E000C000000E94FE0376010E94BB02182F83
S11309F08823D9F30E94A903D7011D937D01AA1668
S1130A00BB0699F70E94FE039F818B81981709F416
S1130A104EC03FC0982F822F31912D91321719F07B
S1130A209093B60036C0843069F59093B60084E99B
S1130A3090E00E94E8038FEF97EAA1E6815090408E
S1130A40A040E1F700C000000E94FE038CE990E0A2
S1130A500E94E803CE0101960E946B0569817A81A8
S1130A6080E090E00E9417048FEF93EDA0E38150A3
S1130A709040A040E1F700C0000080E06AE00E94DE
S1130A800204E8CF282F2F5F241721F68093B600A5
S1130A9077CF87EA90E00E94E8038FEF93EDA0E31D
S1130AA081509040A040E1F700C0000069CF409120
S1130AB0B600433009F4BBCF942F9F5F9093B600E8
S1130AC0842F8E5FFE013896DE0114964B5FA4CF0F
S1130AD00E94490008950E9454000895629FD00125
S1130AE0739FF001829FE00DF11D649FE00DF11DE5
S1130AF0929FF00D839FF00D749FF00D659FF00D94
S1130B009927729FB00DE11DF91F639FB00DE11D80
S1130B10F91FBD01CF011124089597FB092E052665
S1130B200ED057FD04D014D00AD0001C38F45095D0
S1130B304095309521953F4F4F4F5F4F0895F6F7FD
S1130B4090958095709561957F4F8F4F9F4F089535
S1130B50A1E21A2EAA1BBB1BFD010DC0AA1FBB1FBD
S1130B60EE1FFF1FA217B307E407F50720F0A21B2F
S1130B70B30BE40BF50B661F771F881F991F1A949C
S1130B8069F760957095809590959B01AC01BD01C6
S10B0B90CF010895F894FFCF92
S1130B983738392F3435362A3132332D63303D2BEB
S1130BA8B700454E5445522050415353574F524471
S1130BB83A005245454E54455220544F20554E4C08
S1130BC84F434B0057656C636F6D650054656D70DA
S1130BD82E2069733A200057726F6E672050415374
S1090BE853574F52440074
S9030000FC
