:100000000C942A000C9447000C9447000C94470071
:100010000C9447000C9447000C9447000C94470044
:100020000C9447000C9447000C9447000C94470034
:100030000C9447000C9447000C9447000C94470024
:100040000C9447000C9447000C9447000C94470014
:100050000C94470011241FBECFE5D8E0DEBFCDBF12
:1000600010E0A0E6B0E0E8EBF9E002C005900D92E8
:10007000A83AB107D9F710E0A8EAB0E001C01D9294
:10008000AC3AB107E1F70E9419040C94DA040C941D
:100090000000813049F0813028F0823039F083301F
:1000A00041F406C06ABB089567BB089564BB089518
:1000B00061BB08954423C9F1413009F06EC081301D
:1000C00099F0813030F08230D1F0833009F065C092
:1000D00021C02AB381E090E002C0880F991F6A9581
:1000E000E2F7282B2ABB089527B381E090E002C0F5
:1000F000880F991F6A95E2F7282B27BB089524B330
:1001000081E090E002C0880F991F6A95E2F7282BE2
:1001100024BB089521B381E090E002C0880F991FAD
:100120006A95E2F7282B21BB0895813099F0813040
:1001300028F08230D9F0833081F524C02AB381E0E1
:1001400090E002C0880F991F6A95E2F7809582239C
:100150008ABB089527B381E090E002C0880F991F01
:100160006A95E2F78095822387BB089524B381E0E6
:1001700090E002C0880F991F6A95E2F7809582236C
:1001800084BB089521B381E090E002C0880F991FDD
:100190006A95E2F78095822381BB0895813049F00A
:1001A000813028F0823039F0833041F406C06BBBD7
:1001B000089568BB089565BB089562BB0895442304
:1001C000C9F1413009F06EC0813099F0813030F0D2
:1001D0008230D1F0833009F065C021C02BB381E0BB
:1001E00090E002C0880F991F6A95E2F7282B2BBB7D
:1001F000089528B381E090E002C0880F991F6A95A6
:10020000E2F7282B28BB089525B381E090E002C0D7
:10021000880F991F6A95E2F7282B25BB089522B312
:1002200081E090E002C0880F991F6A95E2F7282BC1
:1002300022BB0895813099F0813028F08230D9F0C6
:10024000833081F524C02BB381E090E002C0880F99
:10025000991F6A95E2F7809582238BBB089528B396
:1002600081E090E002C0880F991F6A95E2F78095BF
:10027000822388BB089525B381E090E002C0880FF7
:10028000991F6A95E2F78095822385BB089522B372
:1002900081E090E002C0880F991F6A95E2F780958F
:1002A000822382BB0895FB01813049F0813028F020
:1002B000823039F0833051F407C089B303C086B36C
:1002C00001C083B38083089580B380830895FA01C9
:1002D000813049F0813028F0823039F08330C1F428
:1002E0000EC089B303C086B301C083B390E002C0DF
:1002F000959587956A95E2F781708083089580B31C
:1003000090E002C0959587956A95E2F781708083A9
:100310000895813091F0813028F08230C9F0833027
:1003200061F521C02BB381E090E002C0880F991FD6
:100330006A95E2F728272BBB089528B381E090E067
:1003400002C0880F991F6A95E2F7282728BB0895F5
:1003500025B381E090E002C0880F991F6A95E2F70B
:10036000282725BB089522B381E090E002C0880FC2
:10037000991F6A95E2F7282722BB0895813091F0F2
:10038000813028F08230C9F0833061F521C02BB371
:1003900081E090E002C0880F991F6A95E2F7282B50
:1003A0002BBB089528B381E090E002C0880F991F0D
:1003B0006A95E2F7282B28BB089525B381E090E0E9
:1003C00002C0880F991F6A95E2F7282B25BB089574
:1003D00022B381E090E002C0880F991F6A95E2F78E
:1003E000282B22BB089583E060E041E00E945A0080
:1003F00083E061E041E00E945A0083E062E041E076
:100400000E945A0083E063E041E00E945A0083E0CA
:1004100064E040E00E945A0083E065E040E00E9412
:100420005A0083E066E040E00E945A0083E067E003
:1004300040E00E945A0083E090E064E070E00E9497
:10044000BE0183E090E065E070E00E94BE0183E0C1
:1004500090E066E070E00E94BE0183E090E067E01B
:1004600070E00E94BE0183E060E041E00E94DF0096
:1004700083E061E041E00E94DF0083E062E041E070
:100480000E94DF0083E063E041E00E94DF00089506
:10049000BF92CF92DF92EF92FF920F931F93CF9371
:1004A000DF930F92CDB7DEB7198200E610E0BB24D0
:1004B000FF2483E06F2D40E00E94DF00CC24DD2488
:1004C00084E0E82E83E06E2DAE014F5F5F4F0E9407
:1004D000670189818823A9F4F801EC0DFD1DB08026
:1004E00007C083E06E2DAE014F5F5F4F0E94670132
:1004F00089818823B1F38FE39CE90197F1F700C06C
:100500000000E39484E090E0C80ED91E98E0E9165C
:10051000C9F683E06F2D41E00E94DF00F3940F5F86
:100520001F4F84E0F81629F68B2D0F90DF91CF91A5
:100530001F910F91FF90EF90DF90CF90BF900895A3
:100540008093A8008093A9008093AA008093AB00B9
:10055000809170000895CF93C82F81E061E040E062
:100560000E94DF0081E062E040E00E94DF0081E065
:1005700063E040E00E94DF009BB38C2F807F9F7080
:10058000892B8BBB81E063E041E00E94DF008FE9B3
:100590009FE00197F1F700C0000081E063E040E0D8
:1005A0000E94DF008BB3C295C07F8F70C82BCBBB7E
:1005B00081E063E041E00E94DF008FE99FE0019766
:1005C000F1F700C0000081E063E040E00E94DF003E
:1005D0008FE19EE40197F1F700C00000CF910895EC
:1005E00081E061E041E00E945A0081E062E041E088
:1005F0000E945A0081E063E041E00E945A0080E0DE
:1006000064E041E00E945A0080E065E041E00E9421
:100610005A0080E066E041E00E945A0080E067E016
:1006200041E00E945A008FEF91EEA4E0815090408B
:10063000A040E1F700C0000083E30E94AB0282E328
:100640000E94AB0288E20E94AB028EE00E94AB02E5
:1006500081E00E94AB0282E00E94AB020895CF933A
:10066000C82F81E061E041E00E94DF0081E062E0AC
:1006700040E00E94DF0081E063E040E00E94DF0094
:100680008C2F807F8BBB81E063E041E00E94DF0024
:100690008FE99FE00197F1F700C0000081E063E07F
:1006A00040E00E94DF00C295C07FCBBB81E063E0E9
:1006B00041E00E94DF008FE99FE00197F1F700C061
:1006C000000081E063E040E00E94DF008FE19EE4F3
:1006D0000197F1F700C00000CF9108951F93CF93C9
:1006E000DF93EC0110E003C00E942F031F5FFE01A7
:1006F000E10FF11D80818823B9F7DF91CF911F9120
:10070000089581E00E94AB020895CF93DF9300D05B
:10071000CDB7DEB790E8998390EC9A83FE01E80F9D
:10072000F11D8181860F0E94AB020F900F90DF9127
:10073000CF9108954F925F926F927F928F929F9286
:10074000AF92BF92CF92DF92EF92FF92CF93DF935F
:1007500000D000D0CDB7DEB74B015C0197FF0BC0D6
:100760008DE20E942F03B094A09490948094811CF9
:10077000911CA11CB11C91E0C92ED12CE12CF12CB3
:100780002AE0422E512C612C712C18C0C701B601F1
:100790002AE030E040E050E00E947E046B017C01E2
:1007A000C501B401A30192010E949D04DC01CB01AB
:1007B000C80ED91EEA1EFB1E49015A01811491047C
:1007C000A104B10419F717C0C701B601A50194012E
:1007D0000E949D04862F805D29833A834B835C832E
:1007E0000E942F032981C22E3A81D32E4B81E42E01
:1007F0005C81F52E05C08AE0882E912CA12CB12CAD
:1008000082E0C816D104E104F104F4F60F900F90D1
:100810000F900F90DF91CF91FF90EF90DF90CF90EE
:10082000BF90AF909F908F907F906F905F904F9010
:100830000895CF93DF93CDB7DEB728970FB6F8941E
:10084000DEBF0FBECDBF1D821E821F821886198299
:100850001A821B821C820E94F0020E94F30162E74E
:1008600070E0882777FD8095982F0E949A030E9458
:10087000810335E0E32EF12CEC0EFD1E8701CC2424
:100880000E944802B82E8823D9F30E942F03F80152
:10089000B1928F01F3E0CF1611F40E948103C3944B
:1008A00084E0C81669F787E890E00E946E030E9412
:1008B00081038E010F5F1F4F680124E0B22E0E945A
:1008C0004802A82E8823D9F30E942F03F601A19293
:1008D0006F01BA94A1F70E94810384E0C82EF80149
:1008E00091918F01F70181917F01981721F089E99A
:1008F00090E00E946E03CA9491F7FFCF629FD001EF
:10090000739FF001829FE00DF11D649FE00DF11DCA
:10091000929FF00D839FF00D749FF00D659FF00D79
:100920009927729FB00DE11DF91F639FB00DE11D66
:10093000F91FBD01CF011124089597FB092E05264B
:100940000ED057FD04D014D00AD0001C38F45095B6
:100950004095309521953F4F4F4F5F4F0895F6F7E3
:1009600090958095709561957F4F8F4F9F4F08951B
:10097000A1E21A2EAA1BBB1BFD010DC0AA1FBB1FA3
:10098000EE1FFF1FA217B307E407F50720F0A21B15
:10099000B30BE40BF50B661F771F881F991F1A9482
:1009A00069F760957095809590959B01AC01BD01AC
:0809B000CF010895F894FFCF78
:1009B8003738392F3435362A3132332D63303D2BD1
:1009C800A800454E544552203420444947495453C1
:1009D80020504153533A005245454E5445522054F5
:1009E8004F20554E4C4F434B0057726F6E67205047
:0809F800415353574F524400D4
:00000001FF
