:100000000C942A000C9447000C9447000C94470071
:100010000C9447000C9447000C9447000C94470044
:100020000C9447000C9447000C9447000C94470034
:100030000C9447000C9447000C9447000C94470024
:100040000C9447000C9447000C9447000C94470014
:100050000C94470011241FBECFE5D8E0DEBFCDBF12
:1000600010E0A0E6B0E0EEE4F7E002C005900D92EB
:10007000A036B107D9F710E0A0E6B0E001C01D92AC
:10008000A036B107E1F70E946A000C94A5030C9416
:1000900000003E9A3F98389A3D98359A309A319AA6
:1000A000329A3398379A0895FC01369A86B184FFC4
:1000B000FDCF24B135B184EF91E0289FA001299FA5
:1000C000500D389F500D1124852F8695869580837D
:1000D00011820895CF93DF9300D0CDB7DEB71A8297
:1000E00019820E948D020E945A03CE0101960E943D
:1000F0005D030E94390389819A810E943D038FEF3D
:1001000099E6A8E181509040A040E1F700C00000CE
:10011000ECCF813049F0813028F0823039F08330E3
:1001200041F406C06ABB089567BB089564BB089597
:1001300061BB0895442309F441C0413009F07EC0F9
:100140008130A9F0813030F08230F1F0833009F055
:1001500075C027C02AB381E090E0AC0102C0440F13
:10016000551F6A95E2F7BA01622B6ABB089527B35F
:1001700081E090E0AC0102C0440F551F6A95E2F7A0
:10018000BA01622B67BB089524B381E090E0AC0113
:1001900002C0440F551F6A95E2F7BA01622B64BB97
:1001A000089521B381E090E0AC0102C0440F551FD7
:1001B0006A95E2F7BA01622B61BB08958130A9F01C
:1001C000813028F08230F9F08330C1F52AC02AB39B
:1001D00081E090E0AC0102C0440F551F6A95E2F740
:1001E000BA01609562236ABB089527B381E090E06D
:1001F000AC0102C0440F551F6A95E2F7BA01609541
:10020000622367BB089524B381E090E0AC0102C093
:10021000440F551F6A95E2F7BA016095622364BBEB
:10022000089521B381E090E0AC0102C0440F551F56
:100230006A95E2F7BA016095622361BB0895813047
:1002400049F0813028F0823039F0833041F406C023
:100250006BBB089568BB089568BB089562BB0895A1
:10026000442309F441C0413009F07EC08130A9F037
:10027000813030F08230F1F0833009F075C027C052
:100280002BB381E090E0AC0102C0440F551F6A958A
:10029000E2F7BA01622B6BBB089528B381E090E0CE
:1002A000AC0102C0440F551F6A95E2F7BA01622BF8
:1002B00068BB089525B381E090E0AC0102C0440F13
:1002C000551F6A95E2F7BA01622B65BB089522B308
:1002D00081E090E0AC0102C0440F551F6A95E2F73F
:1002E000BA01622B62BB08958130A9F0813028F0F9
:1002F0008230F9F08330C1F52AC02BB381E090E061
:10030000AC0102C0440F551F6A95E2F7BA0160952F
:1003100062236BBB089528B381E090E0AC0102C07A
:10032000440F551F6A95E2F7BA016095622368BBD6
:10033000089525B381E090E0AC0102C0440F551F41
:100340006A95E2F7BA016095622365BB089522B30E
:1003500081E090E0AC0102C0440F551F6A95E2F7BE
:10036000BA016095622362BB0895813059F08130F3
:1003700028F0823059F0833081F40CC089B3FB013E
:100380008083089586B3FB018083089583B3FB01C6
:100390008083089580B3FB01808308958130A1F0AC
:1003A000813028F08230E9F08330A1F527C089B38D
:1003B00090E09C0102C0359527956A95E2F7B90156
:1003C0006170FA016083089586B390E09C0102C0D9
:1003D000359527956A95E2F7B9016170FA01608356
:1003E000089583B390E09C0102C0359527956A95E6
:1003F000E2F7B9016170FA016083089580B390E07B
:100400009C0102C0359527956A95E2F7B9016170A4
:10041000FA01608308958130A1F0813028F08230A4
:10042000E9F08330A1F527C02BB381E090E0AC0167
:1004300002C0440F551F6A95E2F7BA01622B6BBBED
:10044000089528B381E090E0AC0102C0440F551F2D
:100450006A95E2F7BA01622B68BB089525B381E083
:1004600090E0AC0102C0440F551F6A95E2F7BA0153
:10047000622B65BB089522B381E090E0AC0102C01D
:10048000440F551F6A95E2F7BA01622B62BB0895CB
:10049000CF93C82F81E061E040E00E94300181E00D
:1004A00062E040E00E94300181E063E040E00E94B1
:1004B00030018BB39C2F907F8F70892B8BBB81E099
:1004C00063E041E00E9430018FE99FE00197F1F77E
:1004D00000C0000081E063E040E00E9430018BB387
:1004E000C295C07F8F70C82BCBBB81E063E041E039
:1004F0000E9430018FE99FE00197F1F700C00000F2
:1005000081E063E040E00E9430018FE19EE40197CA
:10051000F1F700C00000CF91089581E061E041E073
:100520000E949A0081E062E041E00E949A0081E02E
:1005300063E041E00E949A0080E064E041E00E94B4
:100540009A0080E065E041E00E949A0080E066E069
:1005500041E00E949A0080E067E041E00E949A003A
:100560008FEF91EEA4E081509040A040E1F700C0F1
:10057000000083E30E94480282E30E94480288E26E
:100580000E9448028CE00E94480281E00E944802DA
:1005900086E00E94480282E00E9448020895CF93BC
:1005A000C82F81E061E041E00E94300181E062E01B
:1005B00040E00E94300181E063E040E00E943001B1
:1005C0008C2F807F8BBB81E063E041E00E94300193
:1005D0008FE99FE00197F1F700C0000081E063E040
:1005E00040E00E943001C295C07FCBBB81E063E058
:1005F00041E00E9430018FE99FE00197F1F700C0D0
:10060000000081E063E040E00E9430018FE19EE461
:100610000197F1F700C00000CF9108950F931F9349
:10062000CF938C01FC018081882351F0C0E00E94AF
:10063000CF02CF5FF801EC0FF11D80818823B9F75D
:10064000CF911F910F910895CF93DF9300D0CDB735
:10065000DEB790E8998390EC9A83FE01E80FF11DD4
:100660008181860F0E9448020F900F90DF91CF91F9
:10067000089581E00E9448020895CF93DF9300D04F
:1006800000D00F92CDB7DEB7FC0180819181BE0111
:100690006F5F7F4F4AE050E00E946003CE010196F9
:1006A0000E940E030F900F900F900F900F90DF910C
:1006B000CF9108950E94490008950E945400089522
:1006C000FB019F01E8944230C4F04532B4F44A3053
:1006D00029F497FB1EF4909581959F4F642F7727FF
:1006E0000E949103805D8A330CF0895D8193CB0178
:1006F0000097A1F716F45DE251931082C9010C94A2
:100700008103DC01FC01672F71917723E1F73297B8
:1007100004C07C916D9370836291AE17BF07C8F3DC
:100720000895AA1BBB1B51E107C0AA1FBB1FA61738
:10073000B70710F0A61BB70B881F991F5A95A9F78A
:0E07400080959095BC01CD010895F894FFCFEF
:00000001FF
