:100000000C942A000C9447000C9447000C94470071
:100010000C9447000C9447000C949B050C94DE0450
:100020000C9447000C9484050C9447000C944704EE
:100030000C9447000C9447000C9447000C94470024
:100040000C9447000C9447000C9447000C94470014
:100050000C94470011241FBECFE5D8E0DEBFCDBF12
:1000600010E0A0E6B0E0EAE6FDE002C005900D92E7
:10007000A837B107D9F710E0A8E7B0E001C01D929A
:10008000AD39B107E1F70E947B030C94B3060C94E1
:100090000000813049F0813028F0823039F083301F
:1000A00041F406C06ABB089567BB089564BB089518
:1000B00061BB0895442309F441C0413009F07EC07A
:1000C0008130A9F0813030F08230F1F0833009F0D6
:1000D00075C027C02AB381E090E0AC0102C0440F94
:1000E000551F6A95E2F7BA01622B6ABB089527B3E0
:1000F00081E090E0AC0102C0440F551F6A95E2F721
:10010000BA01622B67BB089524B381E090E0AC0193
:1001100002C0440F551F6A95E2F7BA01622B64BB17
:10012000089521B381E090E0AC0102C0440F551F57
:100130006A95E2F7BA01622B61BB08958130A9F09C
:10014000813028F08230F9F08330C1F52AC02AB31B
:1001500081E090E0AC0102C0440F551F6A95E2F7C0
:10016000BA01609562236ABB089527B381E090E0ED
:10017000AC0102C0440F551F6A95E2F7BA016095C1
:10018000622367BB089524B381E090E0AC0102C014
:10019000440F551F6A95E2F7BA016095622364BB6C
:1001A000089521B381E090E0AC0102C0440F551FD7
:1001B0006A95E2F7BA016095622361BB08958130C8
:1001C00049F0813028F0823039F0833041F406C0A4
:1001D0006BBB089568BB089565BB089562BB089525
:1001E000442309F441C0413009F07EC08130A9F0B8
:1001F000813030F08230F1F0833009F075C027C0D3
:100200002BB381E090E0AC0102C0440F551F6A950A
:10021000E2F7BA01622B6BBB089528B381E090E04E
:10022000AC0102C0440F551F6A95E2F7BA01622B78
:1002300068BB089525B381E090E0AC0102C0440F93
:10024000551F6A95E2F7BA01622B65BB089522B388
:1002500081E090E0AC0102C0440F551F6A95E2F7BF
:10026000BA01622B62BB08958130A9F0813028F079
:100270008230F9F08330C1F52AC02BB381E090E0E1
:10028000AC0102C0440F551F6A95E2F7BA016095B0
:1002900062236BBB089528B381E090E0AC0102C0FB
:1002A000440F551F6A95E2F7BA016095622368BB57
:1002B000089525B381E090E0AC0102C0440F551FC2
:1002C0006A95E2F7BA016095622365BB089522B38F
:1002D00081E090E0AC0102C0440F551F6A95E2F73F
:1002E000BA016095622362BB0895813059F0813074
:1002F00028F0823059F0833081F40CC089B3FB01BF
:100300008083089586B3FB018083089583B3FB0146
:100310008083089580B3FB01808308958130A1F02C
:10032000813028F08230E9F08330A1F527C089B30D
:1003300090E09C0102C0359527956A95E2F7B901D6
:100340006170FA016083089586B390E09C0102C059
:10035000359527956A95E2F7B9016170FA016083D6
:10036000089583B390E09C0102C0359527956A9566
:10037000E2F7B9016170FA016083089580B390E0FB
:100380009C0102C0359527956A95E2F7B901617025
:10039000FA01608308958130A1F0813028F0823025
:1003A000E9F08330A1F527C02BB381E090E0AC01E8
:1003B00002C0440F551F6A95E2F7BA0162276BBB72
:1003C000089528B381E090E0AC0102C0440F551FAE
:1003D0006A95E2F7BA01622768BB089525B381E008
:1003E00090E0AC0102C0440F551F6A95E2F7BA01D4
:1003F000622765BB089522B381E090E0AC0102C0A2
:10040000440F551F6A95E2F7BA01622762BB08954F
:10041000CF93C82F81E061E040E00E94F00081E0CE
:1004200062E040E00E94F00081E063E040E00E9472
:10043000F0008BB39C2F907F8F70892B8BBB81E05A
:1004400063E041E00E94F0008FE99FE00197F1F73F
:1004500000C0000081E063E040E00E94F0008BB348
:10046000C295C07F8F70C82BCBBB81E063E041E0B9
:100470000E94F0008FE99FE00197F1F700C00000B3
:1004800081E063E040E00E94F0008FE19EE401978C
:10049000F1F700C00000CF91089581E061E041E0F4
:1004A0000E945A0081E062E041E00E945A0081E02F
:1004B00063E041E00E945A0080E064E041E00E9475
:1004C0005A0080E065E041E00E945A0080E066E06A
:1004D00041E00E945A0080E067E041E00E945A003B
:1004E0008FEF91EEA4E081509040A040E1F700C072
:1004F000000083E30E94080282E30E94080288E26F
:100500000E9408028EE00E94080281E00E94080218
:1005100082E00E9408020895CF93C82F81E061E035
:1005200041E00E94F00081E062E040E00E94F000C3
:1005300081E063E040E00E94F0008C2F807F8BBB65
:1005400081E063E041E00E94F0008FE99FE00197C5
:10055000F1F700C0000081E063E040E00E94F0009D
:10056000C295C07FCBBB81E063E041E00E94F00018
:100570008FE99FE00197F1F700C0000081E063E0A0
:1005800040E00E94F0008FE19EE40197F1F700C087
:100590000000CF9108950F931F93CF938C01FC011E
:1005A0008081882351F0C0E00E948C02CF5FF80167
:1005B000EC0FF11D80818823B9F7CF911F910F9126
:1005C000089581E00E9408020895CF93DF9300D040
:1005D000CDB7DEB790E8998390EC9A83FE01E80FDF
:1005E000F11D8181860F0E9408020F900F90DF910C
:1005F000CF9108954F925F926F927F928F929F92C8
:10060000AF92BF92CF92DF92EF92FF92CF93DF93A0
:100610006B017C0199235CF48DE20E948C02F094C2
:10062000E094D094C094C11CD11CE11CF11CC114F5
:10063000D104E104F10409F44FC081E090E0A0E0AE
:10064000B0E00F2EFAE08F2EF0E09F2EF0E0AF2EFC
:10065000F0E0BF2EF02DBC01CD01A50194010E9458
:1006600030062B013C01C701B6010E949806DC014F
:10067000CB01840D951DA61DB71DC22ED32EE42ED1
:10068000F52EC114D104E104F10429F7823091055B
:10069000A105B1050CF10F2EFAE04F2EF0E05F2E10
:1006A000F0E06F2EF0E07F2EF02DBC01CD01A30114
:1006B00092010E949806822EC32EC42FD52F862F1A
:1006C000805D0E948C02882D9C2DAC2FBD2F823026
:1006D0009105A105B1054CF7DF91CF91FF90EF9007
:1006E000DF90CF90BF90AF909F908F907F906F9052
:1006F0005F904F9008950E9473050E944D0266E43A
:1007000070E080E090E00E9478050E9465050F2E61
:10071000F0E66F2EF0E07F2EF02D0F2EFDE64F2E2F
:10072000F0E05F2EF02D0F2EF0E08F2EF2E19F2EE5
:10073000FAE7AF2EF0E0BF2EF02D0F2EF5E72F2EAB
:10074000F0E03F2EF02D80917800833009F05CC0FE
:1007500040918100509182006091830070918400EB
:100760008091790090917A00A0917B00B0917C00FB
:100770006C017D01C41AD50AE60AF70A80917D0052
:1007800090917E00A0917F00B0918000841B950B1A
:10079000A60BB70BBC01CD0124E630E040E050E0F1
:1007A0000E943006A70196010E947606C22FD32F21
:1007B000142F052F80E060E00E94E502C3010E9433
:1007C000CB026C2F7D2F812F902F0E94FA0285E2A1
:1007D0000E948C0281E060E00E94E502C2010E945A
:1007E000CB02C501B401A70196010E947606CA0199
:1007F000B9010E94FA02C1010E94CB021092780056
:1008000089B7806289BF9FCFFFCF83B783BF89B786
:10081000816089BF8FB780688FBF089583B7856077
:1008200083BF089583B78E7F83BF83B78D7F83BFD8
:1008300083B78B7F83BF089528EE33E040E050E01C
:100840000E943006DC01CB01689415F8B695A79597
:10085000979587951694D1F7492F5A2F6B2F7727A5
:1008600081958093900082BFDB01CA010196A11D92
:10087000B11D80938C0090938D00A0938E00B09357
:100880008F000895909392008093910008951F9295
:100890000F920FB60F9211242F933F934F935F93B4
:1008A0006F937F938F939F93AF93BF93EF93FF9338
:1008B0008091930090919400A0919500B091960042
:1008C0000196A11DB11D8093930090939400A09375
:1008D0009500B093960040918C0050918D006091EE
:1008E0008E0070918F0084179507A607B70781F4D3
:1008F0008091900082BF1092930010929400109209
:10090000950010929600E0919100F0919200099567
:10091000FF91EF91BF91AF919F918F917F916F91D7
:100920005F914F913F912F910F900FBE0F901F90AD
:1009300018958EB588608EBD89B7806189BF8FB7E5
:1009400080688FBF08958EB585608EBD08958EB581
:100950008E7F8EBD8EB58D7F8EBD8EB58B7F8EBD0D
:100960000895603A2FE0720720E0820720E09207A6
:10097000F8F428EE33E040E050E00E943006DC015D
:10098000CB01689415F8B695A79597958795169419
:10099000D1F701979BBD8ABD81E090E0A0E0B0E077
:1009A0008093880090938900A0938A00B0938B0075
:1009B0000895909398008093970008951F920F9246
:1009C0000FB60F9211242F933F934F935F936F9322
:1009D0007F938F939F93AF93BF93EF93FF938091F8
:1009E000990090919A00A0919B00B0919C00019673
:1009F000A11DB11D8093990090939A00A0939B0034
:100A0000B0939C00409188005091890060918A00C9
:100A100070918B0084179507A607B70769F41092A9
:100A2000990010929A0010929B0010929C00E09105
:100A30009700F09198000995FF91EF91BF91AF91C8
:100A40009F918F917F916F915F914F913F912F91E6
:100A50000F900FBE0F901F90189583B7886483BFC7
:100A600083B7806283BF0895382F20E0C90164E610
:100A700070E00E944F0661506CBF089583B7836099
:100A800083BF08958FB582688FBD8EB58C618EBD92
:100A900082EE94E097BD86BD0895482F50E022EE87
:100AA00034E0429FC001439F900D529F900D11244E
:100AB00064E670E00E946306615070407BBD6ABDD1
:100AC00008958EB584608EBD0895BF9A8E9817BC28
:100AD00016BC8EB581648EBD89B7846289BF8FB71D
:100AE00080688FBF08958F9A85B58A6685BD089501
:100AF000982F872F762F662724E630E040E050E0DD
:100B00000E94760623BD08951F920F920FB60F9292
:100B100011248F939F938091850090918600019678
:100B200090938600809385009F918F910F900FBEC8
:100B30000F901F9018951F920F920FB60F921124CD
:100B4000CF92DF92EF92FF922F933F934F935F9359
:100B50006F937F938F939F93AF93BF93EF93FF9385
:100B6000809178008F5F8093780080917800813049
:100B7000A1F486B597B5A0E0B0E080938100909392
:100B80008200A0938300B09384001092860010929C
:100B900085008EB58F7B8EBD4EC0809178008230EF
:100BA00011F5C6B4D7B46091850070918600EE242B
:100BB000FF2480E090E02FEF3FEF40E050E00E9404
:100BC0003006DC01CB01C80ED91EEA1EFB1EC09206
:100BD0007D00D0927E00E0927F00F09280008EB582
:100BE00080648EBD28C080917800833021F5C6B422
:100BF000D7B46091850070918600EE24FF2480E0D8
:100C000090E02FEF3FEF40E050E00E943006DC0123
:100C1000CB01C80ED91EEA1EFB1EC0927900D092ED
:100C20007A00E0927B00F0927C008EB58F7B8EBDC7
:100C300089B78F7D89BFFF91EF91BF91AF919F9150
:100C40008F917F916F915F914F913F912F91FF9085
:100C5000EF90DF90CF900F900FBE0F901F901895E0
:100C6000629FD001739FF001829FE00DF11D649F90
:100C7000E00DF11D929FF00D839FF00D749FF00D1C
:100C8000659FF00D9927729FB00DE11DF91F639FBD
:100C9000B00DE11DF91FBD01CF0111240895AA1B5C
:100CA000BB1B51E107C0AA1FBB1FA617B70710F057
:100CB000A61BB70B881F991F5A95A9F78095909589
:100CC000BC01CD01089597FB092E07260AD077FDB8
:100CD00004D0E5DF06D000201AF4709561957F4FAF
:100CE0000895F6F7909581959F4F0895A1E21A2EE9
:100CF000AA1BBB1BFD010DC0AA1FBB1FEE1FFF1FC0
:100D0000A217B307E407F50720F0A21BB30BE40B0F
:100D1000F50B661F771F881F991F1A9469F7609556
:100D20007095809590959B01AC01BD01CF01089510
:100D300097FB092E05260ED057FD04D0D7DF0AD029
:100D4000001C38F450954095309521953F4F4F4FFA
:100D50005F4F0895F6F790958095709561957F4F58
:0A0D60008F4F9F4F0895F894FFCFC6
:100D6A0044757479204379636C65203A004672654C
:080D7A00712E203A00487A00B6
:00000001FF
