S00C00006D61696E2E7372656373
S11300000C942A000C9447000C9447000C9447006D
S11300100C9447000C9447000C9447000C94B702CE
S11300200C9447000C9447000C9447000C94210254
S11300300C9447000C9447000C9447000C94470020
S11300400C9447000C9447000C9447000C94470010
S11300500C94470011241FBECFE5D8E0DEBFCDBF0E
S113006010E0A0E6B0E0E8EAF9E002C005900D92E5
S1130070A036B107D9F710E0A0E6B0E001C01D92A8
S1130080A637B107E1F70E943E030C94D2040C9406
S11300900000813049F0813028F0823039F083301B
S11300A041F406C06ABB089567BB089564BB089514
S11300B061BB08954423C9F1413009F06EC0813019
S11300C099F0813030F08230D1F0833009F065C08E
S11300D021C02AB381E090E002C0880F991F6A957D
S11300E0E2F7282B2ABB089527B381E090E002C0F1
S11300F0880F991F6A95E2F7282B27BB089524B32C
S113010081E090E002C0880F991F6A95E2F7282BDE
S113011024BB089521B381E090E002C0880F991FA9
S11301206A95E2F7282B21BB0895813099F081303C
S113013028F08230D9F0833081F524C02AB381E0DD
S113014090E002C0880F991F6A95E2F78095822398
S11301508ABB089527B381E090E002C0880F991FFD
S11301606A95E2F78095822387BB089524B381E0E2
S113017090E002C0880F991F6A95E2F78095822368
S113018084BB089521B381E090E002C0880F991FD9
S11301906A95E2F78095822381BB0895813049F006
S11301A0813028F0823039F0833041F406C06BBBD3
S11301B0089568BB089565BB089562BB0895442300
S11301C0C9F1413009F06EC0813099F0813030F0CE
S11301D08230D1F0833009F065C021C02BB381E0B7
S11301E090E002C0880F991F6A95E2F7282B2BBB79
S11301F0089528B381E090E002C0880F991F6A95A2
S1130200E2F7282B28BB089525B381E090E002C0D3
S1130210880F991F6A95E2F7282B25BB089522B30E
S113022081E090E002C0880F991F6A95E2F7282BBD
S113023022BB0895813099F0813028F08230D9F0C2
S1130240833081F524C02BB381E090E002C0880F95
S1130250991F6A95E2F7809582238BBB089528B392
S113026081E090E002C0880F991F6A95E2F78095BB
S1130270822388BB089525B381E090E002C0880FF3
S1130280991F6A95E2F78095822385BB089522B36E
S113029081E090E002C0880F991F6A95E2F780958B
S11302A0822382BB0895FB01813049F0813028F01C
S11302B0823039F0833051F407C089B303C086B368
S11302C001C083B38083089580B380830895FA01C5
S11302D0813049F0813028F0823039F08330C1F424
S11302E00EC089B303C086B301C083B390E002C0DB
S11302F0959587956A95E2F781708083089580B318
S113030090E002C0959587956A95E2F781708083A5
S11303100895813091F0813028F08230C9F0833023
S113032061F521C02BB381E090E002C0880F991FD2
S11303306A95E2F728272BBB089528B381E090E063
S113034002C0880F991F6A95E2F7282728BB0895F1
S113035025B381E090E002C0880F991F6A95E2F707
S1130360282725BB089522B381E090E002C0880FBE
S1130370991F6A95E2F7282722BB089583E065E078
S113038041E00E945A000E941B030E943A03089510
S11303902CE835E24FE35EE30E942904462F572FF1
S11303A0682F792FCB01BA012DEC3CEC4CEF51E4D2
S11303B00E9448030E94AC03DC01CB019BBD8ABDB3
S11303C0089583B783BF89B7816089BF8FB7806879
S11303D08FBF089583B7856083BF089583B78E7FE9
S11303E083BF83B78D7F83BF83B78B7F83BF08951C
S11303F028EE33E040E050E00E948C04DC01CB01A5
S1130400E6E0B695A79597958795EA95D1F7492F94
S11304105A2F6B2F772781958093690082BF4F5F96
S11304205F4F6F4F7F4F409365005093660060931A
S1130430670070936800089590936B0080936A003E
S113044008951F920F920FB60F9211242F933F938A
S11304504F935F936F937F938F939F93AF93BF93C8
S1130460EF93FF9380916C0090916D00A0916E00CA
S1130470B0916F000196A11DB11D80936C00909303
S11304806D00A0936E00B0936F0040916500509191
S11304906600609167007091680084179507A6074D
S11304A0B70781F48091690082BF10926C001092AA
S11304B06D0010926E0010926F00E0916A00F0914E
S11304C06B000995FF91EF91BF91AF919F918F912F
S11304D07F916F915F914F913F912F910F900FBE3C
S11304E00F901F9018958EB588608EBD89B7806176
S11304F089BF8FB780688FBF08958EB585608EBD24
S113050008958EB58E7F8EBD8EB58D7F8EBD8EB5D2
S11305108B7F8EBD0895603A2FE0720720E082073A
S113052020E09207F0F428EE33E040E050E00E942F
S11305308C04DC01CB01E6E0B695A79597958795E9
S1130540EA95D1F701979BBD8ABD81E090E0A0E0D8
S1130550B0E08093610090936200A0936300B09335
S113056064000895909371008093700008951F9221
S11305700F920FB60F9211242F933F934F935F93D3
S11305806F937F938F939F93AF93BF93EF93FF9357
S11305908091720090917300A0917400B0917500E5
S11305A00196A11DB11D8093720090937300A093D6
S11305B07400B093750040916100509162006091A5
S11305C063007091640084179507A607B70769F460
S11305D010927200109273001092740010927500C1
S11305E0E0917000F09171000995FF91EF91BF9136
S11305F0AF919F918F917F916F915F914F913F91B7
S11306002F910F900FBE0F901F90189583B7886499
S113061083BF83B7806283BF0895382F20E0C90168
S113062064E670E00E94AB0461506CBF089583B728
S1130630836083BF08958FB582688FBD8EB58C614A
S11306408EBD8CE892E097BD86BD0895482F50E09A
S11306502CE832E0429FC001439F900D529F900DC1
S1130660112464E670E00E94BF04615070407BBDB9
S11306706ABD08958EB584608EBD08950E94BE0142
S113068060E070E080EA90E40E94C801FFCF505817
S1130690BB27AA270ED0A3C094D030F099D020F065
S11306A031F49F3F11F41EF489C00EF4E095E7FB8A
S11306B07FC0E92FA5D080F3BA17620773078407B8
S11306C0950718F071F49EF5BDC00EF4E0950B2E5D
S11306D0BA2FA02D0B01B90190010C01CA01A00190
S11306E01124FF27591B99F0593F50F4503E68F1EB
S11306F01A16F040A22F232F342F4427585FF3CF2C
S1130700469537952795A795F0405395C9F77EF4FC
S11307101F16BA0B620B730B840BBAF09150A1F045
S1130720FF0FBB1F661F771F881FC2F70EC0BA0FCB
S1130730621F731F841F48F4879577956795B79553
S1130740F7959E3F08F0B3CF9395880F08F099274B
S1130750EE0F9795879508955BD088F09F5790F09A
S1130760B92F9927B751A0F0D1F0660F771F881FD2
S1130770991F1AF0BA95C9F712C0B13081F062D04E
S1130780B1E008955FC0672F782F8827B85F39F0EC
S1130790B93FCCF3869577956795B395D9F73EF431
S11307A090958095709561957F4F8F4F9F4F0895D9
S11307B097F99F6780E870E060E008959FEF80EC10
S11307C0089500240A9416161706180609060895B3
S11307D000240A9412161306140605060895092E19
S11307E00394000C11F4882352F0BB0F40F4BF2B88
S11307F011F460FF04C06F5F7F4F8F4F9F4F0895C8
S113080057FD9058440F551F59F05F3F71F04795BD
S1130810880F97FB991F61F09F3F79F087950895A2
S1130820121613061406551FF2CF4695F1DF08C0C1
S1130830161617061806991FF1CF869571056105DE
S113084008940895E894BB2766277727CB0197F986
S113085008950BD0C4CFB5DF28F0BADF18F0952384
S113086009F0A6CFABCF1124EECFCADFA0F3959F3A
S1130870D1F3950F50E0551F629FF001729FBB2783
S1130880F00DB11D639FAA27F00DB11DAA1F649F2F
S11308906627B00DA11D661F829F2227B00DA11DE2
S11308A0621F739FB00DA11D621F839FA00D611D68
S11308B0221F749F3327A00D611D231F849F600D89
S11308C0211D822F762F6A2F11249F5750408AF0C2
S11308D0E1F088234AF0EE0FFF1FBB1F661F771F4E
S11308E0881F91505040A9F79E3F510570F060CF8A
S11308F0AACF5F3FECF3983EDCF386957795679536
S1130900B795F795E7959F5FC1F7FE2B880F911D6B
S11309109695879597F90895629FD001739FF0018A
S1130920829FE00DF11D649FE00DF11D929FF00D7B
S1130930839FF00D749FF00D659FF00D9927729FB2
S1130940B00DE11DF91F639FB00DE11DF91FBD013D
S1130950CF0111240895AA1BBB1B51E107C0AA1F94
S1130960BB1FA617B70710F0A61BB70B881F991F4C
S11309705A95A9F780959095BC01CD01089597FBF0
S1130980092E07260AD077FD04D0E5DF06D0002023
S11309901AF4709561957F4F0895F6F790958195B7
S10B09A09F4F0895F894FFCF66
S9030000FC
