:100000000C942A000C9447000C9447000C94470071
:100010000C9447000C9447000C9447000C94F40295
:100020000C9447000C9447000C9447000C945D021C
:100030000C9447000C9447000C9447000C94470024
:100040000C9447000C9447000C9447000C94470014
:100050000C94470011241FBECFE5D8E0DEBFCDBF12
:1000600010E0A0E6B0E0E6E8F7E002C005900D92EF
:10007000A036B107D9F710E0A0E6B0E001C01D92AC
:10008000A637B107E1F70E9408020C94C1030C9453
:100090000000813049F0813028F0823039F083301F
:1000A00041F406C06ABB089567BB089564BB089518
:1000B00061BB0895442309F441C0413009F07EC07A
:1000C0008130A9F0813030F08230F1F0833009F0D6
:1000D00075C027C02AB381E090E0AC0102C0440F94
:1000E000551F6A95E2F7BA01622B6ABB089527B3E0
:1000F00081E090E0AC0102C0440F551F6A95E2F721
:10010000BA01622B67BB089524B381E090E0AC0193
:1001100002C0440F551F6A95E2F7BA01622B64BB17
:10012000089521B381E090E0AC0102C0440F551F57
:100130006A95E2F7BA01622B61BB08958130A9F09C
:10014000813028F08230F9F08330C1F52AC02AB31B
:1001500081E090E0AC0102C0440F551F6A95E2F7C0
:10016000BA01609562236ABB089527B381E090E0ED
:10017000AC0102C0440F551F6A95E2F7BA016095C1
:10018000622367BB089524B381E090E0AC0102C014
:10019000440F551F6A95E2F7BA016095622364BB6C
:1001A000089521B381E090E0AC0102C0440F551FD7
:1001B0006A95E2F7BA016095622361BB08958130C8
:1001C00049F0813028F0823039F0833041F406C0A4
:1001D0006BBB089568BB089565BB089562BB089525
:1001E000442309F441C0413009F07EC08130A9F0B8
:1001F000813030F08230F1F0833009F075C027C0D3
:100200002BB381E090E0AC0102C0440F551F6A950A
:10021000E2F7BA01622B6BBB089528B381E090E04E
:10022000AC0102C0440F551F6A95E2F7BA01622B78
:1002300068BB089525B381E090E0AC0102C0440F93
:10024000551F6A95E2F7BA01622B65BB089522B388
:1002500081E090E0AC0102C0440F551F6A95E2F7BF
:10026000BA01622B62BB08958130A9F0813028F079
:100270008230F9F08330C1F52AC02BB381E090E0E1
:10028000AC0102C0440F551F6A95E2F7BA016095B0
:1002900062236BBB089528B381E090E0AC0102C0FB
:1002A000440F551F6A95E2F7BA016095622368BB57
:1002B000089525B381E090E0AC0102C0440F551FC2
:1002C0006A95E2F7BA016095622365BB089522B38F
:1002D00081E090E0AC0102C0440F551F6A95E2F73F
:1002E000BA016095622362BB0895813059F0813074
:1002F00028F0823059F0833081F40CC089B3FB01BF
:100300008083089586B3FB018083089583B3FB0146
:100310008083089580B3FB01808308958130A1F02C
:10032000813028F08230E9F08330A1F527C089B30D
:1003300090E09C0102C0359527956A95E2F7B901D6
:100340006170FA016083089586B390E09C0102C059
:10035000359527956A95E2F7B9016170FA016083D6
:10036000089583B390E09C0102C0359527956A9566
:10037000E2F7B9016170FA016083089580B390E0FB
:100380009C0102C0359527956A95E2F7B901617025
:10039000FA01608308958130A1F0813028F0823025
:1003A000E9F08330A1F527C02BB381E090E0AC01E8
:1003B00002C0440F551F6A95E2F7BA0162276BBB72
:1003C000089528B381E090E0AC0102C0440F551FAE
:1003D0006A95E2F7BA01622768BB089525B381E008
:1003E00090E0AC0102C0440F551F6A95E2F7BA01D4
:1003F000622765BB089522B381E090E0AC0102C0A2
:10040000440F551F6A95E2F7BA01622762BB08954F
:100410000E9410020E9458038AE00E946303FFCFEB
:1004200083E065E041E00E945A000E9458030E9468
:1004300077030895089583B783BF89B7816089BF23
:100440008FB780688FBF089583B7856083BF089595
:1004500083B78E7F83BF83B78D7F83BF83B78B7F47
:1004600083BF089528EE33E040E050E00E947B0314
:10047000DC01CB01689415F8B695A79597958795FB
:100480001694D1F7492F5A2F6B2F77278195809398
:10049000690082BFDB01CA010196A11DB11D8093D5
:1004A000650090936600A0936700B093680008957C
:1004B00090936B0080936A0008951F920F920FB67D
:1004C0000F9211242F933F934F935F936F937F93DA
:1004D0008F939F93AF93BF93EF93FF9380916C00A3
:1004E00090916D00A0916E00B0916F000196A11DDA
:1004F000B11D80936C0090936D00A0936E00B0933B
:100500006F004091650050916600609167007091A6
:10051000680084179507A607B70781F480916900E2
:1005200082BF10926C0010926D0010926E001092BB
:100530006F00E0916A00F0916B000995FF91EF91D7
:10054000BF91AF919F918F917F916F915F914F91EB
:100550003F912F910F900FBE0F901F9018958EB561
:1005600088608EBD89B7806189BF8FB780688FBF73
:1005700008958EB585608EBD08958EB58E7F8EBD33
:100580008EB58D7F8EBD8EB58B7F8EBD0895603A02
:100590002FE0720720E0820720E09207F8F428EEAF
:1005A00033E040E050E00E947B03DC01CB01689423
:1005B00015F8B695A795979587951694D1F7019755
:1005C0009BBD8ABD81E090E0A0E0B0E08093610037
:1005D00090936200A0936300B09364000895909399
:1005E00071008093700008951F920F920FB60F92C2
:1005F00011242F933F934F935F936F937F938F9328
:100600009F93AF93BF93EF93FF938091720090916C
:100610007300A0917400B09175000196A11DB11DE9
:100620008093720090937300A0937400B093750050
:10063000409161005091620060916300709164008C
:1006400084179507A607B70769F4109272001092F5
:1006500073001092740010927500E0917000F09198
:1006600071000995FF91EF91BF91AF919F918F918B
:100670007F916F915F914F913F912F910F900FBE9E
:100680000F901F90189583B7886483BF83B78062EB
:1006900083BF0895382F20E0C90164E670E00E940E
:1006A0009A0361506CBF089583B7836083BF089538
:1006B0008FB582608FBD8EB588618EBD82EE94E06D
:1006C00097BD86BD0895482F50E022EE34E0429F4A
:1006D000C001439F900D529F900D112464E670E07D
:1006E0000E94AE03615070407BBD6ABD08958EB517
:1006F00084608EBD0895629FD001739FF001829F38
:10070000E00DF11D649FE00DF11D929FF00D839FA0
:10071000F00D749FF00D659FF00D9927729FB00D3D
:10072000E11DF91F639FB00DE11DF91FBD01CF0150
:1007300011240895AA1BBB1B51E107C0AA1FBB1FB0
:10074000A617B70710F0A61BB70B881F991F5A955D
:10075000A9F780959095BC01CD01089597FB092ECE
:1007600007260AD077FD04D0E5DF06D000201AF472
:10077000709561957F4F0895F6F7909581959F4FFD
:060780000895F894FFCF7C
:00000001FF
