S00C00006D61696E2E7372656373
S11300000C942A000C9447000C9447000C9447006D
S11300100C9447000C9447000C94C0040C94020404
S11300200C9447000C94A9040C9447000C946C03A2
S11300300C9447000C9447000C9447000C94470020
S11300400C9447000C9447000C9447000C94470010
S11300500C94470011241FBECFE5D8E0DEBFCDBF0E
S113006010E0A0E6B0E0ECEBFCE002C005900D92DD
S1130070A038B107D9F710E0A0E8B0E001C01D92A4
S1130080A53AB107E1F70E9454050C945C060C9460
S11300900000813049F0813028F0823039F083301B
S11300A041F406C06ABB089567BB089564BB089514
S11300B061BB08954423C9F1413009F06EC0813019
S11300C099F0813030F08230D1F0833009F065C08E
S11300D021C02AB381E090E002C0880F991F6A957D
S11300E0E2F7282B2ABB089527B381E090E002C0F1
S11300F0880F991F6A95E2F7282B27BB089524B32C
S113010081E090E002C0880F991F6A95E2F7282BDE
S113011024BB089521B381E090E002C0880F991FA9
S11301206A95E2F7282B21BB0895813099F081303C
S113013028F08230D9F0833081F524C02AB381E0DD
S113014090E002C0880F991F6A95E2F78095822398
S11301508ABB089527B381E090E002C0880F991FFD
S11301606A95E2F78095822387BB089524B381E0E2
S113017090E002C0880F991F6A95E2F78095822368
S113018084BB089521B381E090E002C0880F991FD9
S11301906A95E2F78095822381BB0895813049F006
S11301A0813028F0823039F0833041F406C06BBBD3
S11301B0089568BB089565BB089562BB0895442300
S11301C0C9F1413009F06EC0813099F0813030F0CE
S11301D08230D1F0833009F065C021C02BB381E0B7
S11301E090E002C0880F991F6A95E2F7282B2BBB79
S11301F0089528B381E090E002C0880F991F6A95A2
S1130200E2F7282B28BB089525B381E090E002C0D3
S1130210880F991F6A95E2F7282B25BB089522B30E
S113022081E090E002C0880F991F6A95E2F7282BBD
S113023022BB0895813099F0813028F08230D9F0C2
S1130240833081F524C02BB381E090E002C0880F95
S1130250991F6A95E2F7809582238BBB089528B392
S113026081E090E002C0880F991F6A95E2F78095BB
S1130270822388BB089525B381E090E002C0880FF3
S1130280991F6A95E2F78095822385BB089522B36E
S113029081E090E002C0880F991F6A95E2F780958B
S11302A0822382BB0895FB01813049F0813028F01C
S11302B0823039F0833051F407C089B303C086B368
S11302C001C083B38083089580B380830895FA01C5
S11302D0813049F0813028F0823039F08330C1F424
S11302E00EC089B303C086B301C083B390E002C0DB
S11302F0959587956A95E2F781708083089580B318
S113030090E002C0959587956A95E2F781708083A5
S11303100895813091F0813028F08230C9F0833023
S113032061F521C02BB381E090E002C0880F991FD2
S11303306A95E2F728272BBB089528B381E090E063
S113034002C0880F991F6A95E2F7282728BB0895F1
S113035025B381E090E002C0880F991F6A95E2F707
S1130360282725BB089522B381E090E002C0880FBE
S1130370991F6A95E2F7282722BB0895CF93C82FC7
S113038081E061E040E00E94DF0081E062E040E063
S11303900E94DF0081E063E040E00E94DF009BB345
S11303A08C2F807F9F70892B8BBB81E063E041E0C1
S11303B00E94DF008FE99FE00197F1F700C0000081
S11303C081E063E040E00E94DF008BB3C295C07F10
S11303D08F70C82BCBBB81E063E041E00E94DF005B
S11303E08FE99FE00197F1F700C0000081E063E02E
S11303F040E00E94DF008FE19EE40197F1F700C026
S11304000000CF91089581E061E041E00E945A002C
S113041081E062E041E00E945A0081E063E041E053
S11304200E945A0080E064E041E00E945A0080E0AB
S113043065E041E00E945A0080E066E041E00E94ED
S11304405A0080E067E041E00E945A008FEF91EE8D
S1130450A4E081509040A040E1F700C0000083E395
S11304600E94BE0182E30E94BE0188E20E94BE0196
S11304708EE00E94BE0181E00E94BE0182E00E94E3
S1130480BE010895CF93C82F81E061E041E00E944E
S1130490DF0081E062E040E00E94DF0081E063E091
S11304A040E00E94DF008C2F807F8BBB81E063E003
S11304B041E00E94DF008FE99FE00197F1F700C05F
S11304C0000081E063E040E00E94DF00C295C07F4D
S11304D0CBBB81E063E041E00E94DF008FE99FE055
S11304E00197F1F700C0000081E063E040E00E9462
S11304F0DF008FE19EE40197F1F700C00000CF9187
S113050008951F93CF93DF93EC0110E003C00E9482
S113051042021F5FFE01E10FF11D80818823B9F7BC
S1130520DF91CF911F91089581E00E94BE0108954B
S1130530CF93DF9300D0CDB7DEB790E8998390ECEA
S11305409A83FE01E80FF11D8181860F0E94BE018E
S11305500F900F90DF91CF9108954F925F926F9219
S11305607F928F929F92AF92BF92CF92DF92EF923F
S1130570FF92CF93DF9300D000D0CDB7DEB74B010D
S11305805C0197FF0BC08DE20E944202B094A094DC
S113059090948094811C911CA11CB11C91E0C92EE3
S11305A0D12CE12CF12C2AE0422E512C612C712CFF
S11305B018C0C701B6012AE030E040E050E00E94D4
S11305C0D9056B017C01C501B401A30192010E940C
S11305D04106DC01CB01C80ED91EEA1EFB1E4901EF
S11305E05A0181149104A104B10419F717C0C70179
S11305F0B601A50194010E944106862F805D2983DE
S11306003A834B835C830E9442022981C22E3A8141
S1130610D32E4B81E42E5C81F52E05C08AE0882E12
S1130620912CA12CB12C82E0C816D104E104F10470
S1130630F4F60F900F900F900F90DF91CF91FF90F1
S1130640EF90DF90CF90BF90AF909F908F907F906E
S11306506F905F904F90089583B783BF89B781608F
S113066089BF8FB780688FBF089583B7856083BFC4
S1130670089583B78E7F83BF83B78D7F83BF83B78E
S11306808B7F83BF089528EE33E040E050E00E9462
S1130690D905DC01CB01E6E0B695A795979587953A
S11306A0EA95D1F7492F5A2F6B2F7727819580939D
S11306B0980082BF4F5F5F4F6F4F7F4F409394000E
S11306C050939500609396007093970008959093CB
S11306D09A008093990008951F920F920FB60F927B
S11306E011242F933F934F935F936F937F938F9333
S11306F09F93AF93BF93EF93FF9380919B0090914F
S11307009C00A0919D00B0919E000196A11DB11D79
S113071080939B0090939C00A0939D00B0939E00B7
S113072040919400509195006091960070919700CB
S113073084179507A607B70781F48091980082BFB4
S113074010929B0010929C0010929D0010929E00AB
S1130750E0919900F0919A000995FF91EF91BF9172
S1130760AF919F918F917F916F915F914F913F9145
S11307702F910F900FBE0F901F9018958EB5886023
S11307808EBD89B7806189BF8FB780688FBF089598
S11307908EB585608EBD08958EB58E7F8EBD8EB567
S11307A08D7F8EBD8EB58B7F8EBD0895603A2FE010
S11307B0720720E0820720E09207F0F428EE33E08D
S11307C040E050E00E94D905DC01CB01E6E0B6959B
S11307D0A79597958795EA95D1F701979BBD8ABD13
S11307E081E090E0A0E0B0E08093900090939100CD
S11307F0A0939200B093930008959093A0008093E7
S11308009F0008951F920F920FB60F9211242F93F9
S11308103F934F935F936F937F938F939F93AF9384
S1130820BF93EF93FF938091A1009091A200A091B8
S1130830A300B091A4000196A11DB11D8093A10055
S11308409093A200A093A300B093A40040919000C1
S113085050919100609192007091930084179507D4
S1130860A607B70769F41092A1001092A200109293
S1130870A3001092A400E0919F00F091A0000995BC
S1130880FF91EF91BF91AF919F918F917F916F9164
S11308905F914F913F912F910F900FBE0F901F903A
S11308A0189583B7886483BF83B7806283BF089534
S11308B0382F20E0C90164E670E00E94F805615019
S11308C06CBF089583B7836083BF08958FB5826832
S11308D08FBD8EB58C618EBD82EE94E097BD86BDD2
S11308E00895482F50E022EE34E0429FC001439F18
S11308F0900D529F900D112464E670E00E940C0646
S1130900615070407BBD6ABD08958EB584608EBD14
S11309100895BF9A8E9817BC16BC8EB581648EBD9F
S113092089B7846289BF8FB780688FBF08958F9A13
S113093085B58A6685BD0895982F872F762F6627FB
S113094024E630E040E050E00E941F06215023BD21
S113095008951F920F920FB60F9211248F939F93B5
S113096080918D0090918E00019690938E008093DB
S11309708D009F918F910F900FBE0F901F9018952F
S11309801F920F920FB60F921124CF92DF92EF9223
S1130990FF922F933F934F935F936F937F938F9324
S11309A09F93AF93BF93EF93FF93809180008F5FEA
S11309B08093800080918000813099F486B597B54A
S11309C0A0E0B0E08093890090938A00A0938B000C
S11309D0B0938C0010928E0010928D008EB58F7B98
S11309E024C080918000823011F5C6B4D7B46091E0
S11309F08D0070918E00EE24FF2480E090E02FEFB4
S1130A003FEF40E050E00E94D905DC01CB01C80E65
S1130A10D91EEA1EFB1EC0928500D0928600E09289
S1130A208700F09288008EB580648EBD28C08091C6
S1130A308000833021F5C6B4D7B460918D007091E5
S1130A408E00EE24FF2480E090E02FEF3FEF40E0A3
S1130A5050E00E94D905DC01CB01C80ED91EEA1E64
S1130A60FB1EC0928100D0928200E0928300F0923B
S1130A7084008EB58F7B8EBD89B78F7D89BFFF9132
S1130A80EF91BF91AF919F918F917F916F915F9102
S1130A904F913F912F91FF90EF90DF90CF900F9067
S1130AA00FBE0F901F901895CF93DF9300D000D006
S1130AB0CDB7DEB70E9497040E94030266E470E09B
S1130AC080E090E00E949C040E94890480E690E00B
S1130AD00E9481020E949402812C22E1922E2AE734
S1130AE0A22EB12C80918000833009F061C0409126
S1130AF0890050918A0060918B0070918C00C090A5
S1130B008100D0908200E0908300F0908400C41AA9
S1130B10D50AE60AF70A8091850090918600A09193
S1130B208700B0918800841B950BA60BB70BBC0102
S1130B30CD0124E630E040E050E00E94D905A70151
S1130B4096010E941F0680E060E029833A834B836C
S1130B505C830E94980288E690E00E9481022981C9
S1130B60622F3A81732F4B81842F5C81952F0E94D1
S1130B70AD0285E20E94420281E060E00E94980298
S1130B8085E790E00E948102C501B401A7019601A6
S1130B900E941F06CA01B9010E94AD028DE790E0D0
S1130BA00E9481021092800089B7806289BF9ACF27
S1130BB0FFCF629FD001739FF001829FE00DF11D72
S1130BC0649FE00DF11D929FF00D839FF00D749FC3
S1130BD0F00D659FF00D9927729FB00DE11DF91F6F
S1130BE0639FB00DE11DF91FBD01CF0111240895CC
S1130BF0AA1BBB1B51E107C0AA1FBB1FA617B7073F
S1130C0010F0A61BB70B881F991F5A95A9F780955A
S1130C109095BC01CD01089597FB092E07260AD0B3
S1130C2077FD04D0E5DF06D000201AF470956195B5
S1130C307F4F0895F6F7909581959F4F0895A1E20F
S1130C401A2EAA1BBB1BFD010DC0AA1FBB1FEE1F42
S1130C50FF1FA217B307E407F50720F0A21BB30B8D
S1130C60E40BF50B661F771F881F991F1A9469F709
S1130C7060957095809590959B01AC01BD01CF0165
S1130C80089597FB092E05260ED057FD04D0D7DF13
S1130C900AD0001C38F450954095309521953F4F6B
S1130CA04F4F5F4F0895F6F7909580957095619535
S10F0CB07F4F8F4F9F4F0895F894FFCFA3
S1130CBC57454C434F4D4500447574792043796333
S1130CCC6C65203A00467265712E203A00487A0011
S9030000FC
